{
  "_format": "hh-sol-artifact-1",
  "contractName": "Dreamverse",
  "sourceName": "contracts/NFT.sol",
  "abi": [
    {
      "inputs": [
        {
          "internalType": "address",
          "name": "marketAddress",
          "type": "address"
        }
      ],
      "stateMutability": "nonpayable",
      "type": "constructor"
    },
    {
      "anonymous": false,
      "inputs": [
        {
          "indexed": true,
          "internalType": "address",
          "name": "owner",
          "type": "address"
        },
        {
          "indexed": true,
          "internalType": "address",
          "name": "approved",
          "type": "address"
        },
        {
          "indexed": true,
          "internalType": "uint256",
          "name": "tokenId",
          "type": "uint256"
        }
      ],
      "name": "Approval",
      "type": "event"
    },
    {
      "anonymous": false,
      "inputs": [
        {
          "indexed": true,
          "internalType": "address",
          "name": "owner",
          "type": "address"
        },
        {
          "indexed": true,
          "internalType": "address",
          "name": "operator",
          "type": "address"
        },
        {
          "indexed": false,
          "internalType": "bool",
          "name": "approved",
          "type": "bool"
        }
      ],
      "name": "ApprovalForAll",
      "type": "event"
    },
    {
      "anonymous": false,
      "inputs": [
        {
          "indexed": true,
          "internalType": "address",
          "name": "previousOwner",
          "type": "address"
        },
        {
          "indexed": true,
          "internalType": "address",
          "name": "newOwner",
          "type": "address"
        }
      ],
      "name": "OwnershipTransferred",
      "type": "event"
    },
    {
      "anonymous": false,
      "inputs": [
        {
          "indexed": false,
          "internalType": "address",
          "name": "account",
          "type": "address"
        }
      ],
      "name": "Paused",
      "type": "event"
    },
    {
      "anonymous": false,
      "inputs": [
        {
          "indexed": true,
          "internalType": "address",
          "name": "from",
          "type": "address"
        },
        {
          "indexed": true,
          "internalType": "address",
          "name": "to",
          "type": "address"
        },
        {
          "indexed": true,
          "internalType": "uint256",
          "name": "tokenId",
          "type": "uint256"
        }
      ],
      "name": "Transfer",
      "type": "event"
    },
    {
      "anonymous": false,
      "inputs": [
        {
          "indexed": false,
          "internalType": "address",
          "name": "account",
          "type": "address"
        }
      ],
      "name": "Unpaused",
      "type": "event"
    },
    {
      "inputs": [
        {
          "internalType": "address",
          "name": "to",
          "type": "address"
        },
        {
          "internalType": "uint256",
          "name": "tokenId",
          "type": "uint256"
        }
      ],
      "name": "approve",
      "outputs": [],
      "stateMutability": "nonpayable",
      "type": "function"
    },
    {
      "inputs": [
        {
          "internalType": "address",
          "name": "owner",
          "type": "address"
        }
      ],
      "name": "balanceOf",
      "outputs": [
        {
          "internalType": "uint256",
          "name": "",
          "type": "uint256"
        }
      ],
      "stateMutability": "view",
      "type": "function"
    },
    {
      "inputs": [
        {
          "internalType": "uint256",
          "name": "tokenId",
          "type": "uint256"
        }
      ],
      "name": "burn",
      "outputs": [
        {
          "internalType": "uint256",
          "name": "",
          "type": "uint256"
        }
      ],
      "stateMutability": "nonpayable",
      "type": "function"
    },
    {
      "inputs": [],
      "name": "createdItemBy",
      "outputs": [
        {
          "internalType": "string[]",
          "name": "",
          "type": "string[]"
        }
      ],
      "stateMutability": "view",
      "type": "function"
    },
    {
      "inputs": [
        {
          "internalType": "uint256",
          "name": "tokenId",
          "type": "uint256"
        }
      ],
      "name": "getApproved",
      "outputs": [
        {
          "internalType": "address",
          "name": "",
          "type": "address"
        }
      ],
      "stateMutability": "view",
      "type": "function"
    },
    {
      "inputs": [
        {
          "internalType": "address",
          "name": "owner",
          "type": "address"
        },
        {
          "internalType": "address",
          "name": "operator",
          "type": "address"
        }
      ],
      "name": "isApprovedForAll",
      "outputs": [
        {
          "internalType": "bool",
          "name": "",
          "type": "bool"
        }
      ],
      "stateMutability": "view",
      "type": "function"
    },
    {
      "inputs": [],
      "name": "itemsOwnedbyCaller",
      "outputs": [
        {
          "components": [
            {
              "internalType": "uint256",
              "name": "tokenId",
              "type": "uint256"
            },
            {
              "internalType": "string",
              "name": "tokenUri",
              "type": "string"
            }
          ],
          "internalType": "struct Dreamverse.tokenIdWithUri[]",
          "name": "",
          "type": "tuple[]"
        }
      ],
      "stateMutability": "view",
      "type": "function"
    },
    {
      "inputs": [
        {
          "internalType": "string",
          "name": "_tokenUri",
          "type": "string"
        }
      ],
      "name": "mint",
      "outputs": [
        {
          "internalType": "uint256",
          "name": "",
          "type": "uint256"
        }
      ],
      "stateMutability": "nonpayable",
      "type": "function"
    },
    {
      "inputs": [],
      "name": "name",
      "outputs": [
        {
          "internalType": "string",
          "name": "",
          "type": "string"
        }
      ],
      "stateMutability": "view",
      "type": "function"
    },
    {
      "inputs": [],
      "name": "owner",
      "outputs": [
        {
          "internalType": "address",
          "name": "",
          "type": "address"
        }
      ],
      "stateMutability": "view",
      "type": "function"
    },
    {
      "inputs": [
        {
          "internalType": "uint256",
          "name": "tokenId",
          "type": "uint256"
        }
      ],
      "name": "ownerOf",
      "outputs": [
        {
          "internalType": "address",
          "name": "",
          "type": "address"
        }
      ],
      "stateMutability": "view",
      "type": "function"
    },
    {
      "inputs": [],
      "name": "pause",
      "outputs": [],
      "stateMutability": "nonpayable",
      "type": "function"
    },
    {
      "inputs": [],
      "name": "paused",
      "outputs": [
        {
          "internalType": "bool",
          "name": "",
          "type": "bool"
        }
      ],
      "stateMutability": "view",
      "type": "function"
    },
    {
      "inputs": [],
      "name": "renounceOwnership",
      "outputs": [],
      "stateMutability": "nonpayable",
      "type": "function"
    },
    {
      "inputs": [
        {
          "internalType": "address",
          "name": "from",
          "type": "address"
        },
        {
          "internalType": "address",
          "name": "to",
          "type": "address"
        },
        {
          "internalType": "uint256",
          "name": "tokenId",
          "type": "uint256"
        }
      ],
      "name": "safeTransferFrom",
      "outputs": [],
      "stateMutability": "nonpayable",
      "type": "function"
    },
    {
      "inputs": [
        {
          "internalType": "address",
          "name": "from",
          "type": "address"
        },
        {
          "internalType": "address",
          "name": "to",
          "type": "address"
        },
        {
          "internalType": "uint256",
          "name": "tokenId",
          "type": "uint256"
        },
        {
          "internalType": "bytes",
          "name": "_data",
          "type": "bytes"
        }
      ],
      "name": "safeTransferFrom",
      "outputs": [],
      "stateMutability": "nonpayable",
      "type": "function"
    },
    {
      "inputs": [
        {
          "internalType": "address",
          "name": "operator",
          "type": "address"
        },
        {
          "internalType": "bool",
          "name": "approved",
          "type": "bool"
        }
      ],
      "name": "setApprovalForAll",
      "outputs": [],
      "stateMutability": "nonpayable",
      "type": "function"
    },
    {
      "inputs": [
        {
          "internalType": "bytes4",
          "name": "interfaceId",
          "type": "bytes4"
        }
      ],
      "name": "supportsInterface",
      "outputs": [
        {
          "internalType": "bool",
          "name": "",
          "type": "bool"
        }
      ],
      "stateMutability": "view",
      "type": "function"
    },
    {
      "inputs": [],
      "name": "symbol",
      "outputs": [
        {
          "internalType": "string",
          "name": "",
          "type": "string"
        }
      ],
      "stateMutability": "view",
      "type": "function"
    },
    {
      "inputs": [
        {
          "internalType": "uint256",
          "name": "tokenId",
          "type": "uint256"
        }
      ],
      "name": "tokenURI",
      "outputs": [
        {
          "internalType": "string",
          "name": "",
          "type": "string"
        }
      ],
      "stateMutability": "view",
      "type": "function"
    },
    {
      "inputs": [],
      "name": "totalItemsCreated",
      "outputs": [
        {
          "internalType": "uint256",
          "name": "",
          "type": "uint256"
        }
      ],
      "stateMutability": "view",
      "type": "function"
    },
    {
      "inputs": [
        {
          "internalType": "address",
          "name": "from",
          "type": "address"
        },
        {
          "internalType": "address",
          "name": "to",
          "type": "address"
        },
        {
          "internalType": "uint256",
          "name": "tokenId",
          "type": "uint256"
        }
      ],
      "name": "transferFrom",
      "outputs": [],
      "stateMutability": "nonpayable",
      "type": "function"
    },
    {
      "inputs": [
        {
          "internalType": "address",
          "name": "newOwner",
          "type": "address"
        }
      ],
      "name": "transferOwnership",
      "outputs": [],
      "stateMutability": "nonpayable",
      "type": "function"
    },
    {
      "inputs": [],
      "name": "unpause",
      "outputs": [],
      "stateMutability": "nonpayable",
      "type": "function"
    }
  ],
  "bytecode": "0x60806040523480156200001157600080fd5b50604051620043af380380620043af8339818101604052810190620000379190620002ed565b6040518060400160405280600a81526020017f447265616d7665727365000000000000000000000000000000000000000000008152506040518060400160405280600381526020017f444d560000000000000000000000000000000000000000000000000000000000815250620000c3620000b76200015a60201b60201c565b6200016260201b60201c565b8160019080519060200190620000db92919062000226565b508060029080519060200190620000f492919062000226565b5050506000600860006101000a81548160ff02191690831515021790555080600a60006101000a81548173ffffffffffffffffffffffffffffffffffffffff021916908373ffffffffffffffffffffffffffffffffffffffff16021790555050620003cc565b600033905090565b60008060009054906101000a900473ffffffffffffffffffffffffffffffffffffffff169050816000806101000a81548173ffffffffffffffffffffffffffffffffffffffff021916908373ffffffffffffffffffffffffffffffffffffffff1602179055508173ffffffffffffffffffffffffffffffffffffffff168173ffffffffffffffffffffffffffffffffffffffff167f8be0079c531659141344cd1fd0a4f28419497f9722a3daafe3b4186f6b6457e060405160405180910390a35050565b82805462000234906200034d565b90600052602060002090601f016020900481019282620002585760008555620002a4565b82601f106200027357805160ff1916838001178555620002a4565b82800160010185558215620002a4579182015b82811115620002a357825182559160200191906001019062000286565b5b509050620002b39190620002b7565b5090565b5b80821115620002d2576000816000905550600101620002b8565b5090565b600081519050620002e781620003b2565b92915050565b6000602082840312156200030057600080fd5b60006200031084828501620002d6565b91505092915050565b600062000326826200032d565b9050919050565b600073ffffffffffffffffffffffffffffffffffffffff82169050919050565b600060028204905060018216806200036657607f821691505b602082108114156200037d576200037c62000383565b5b50919050565b7f4e487b7100000000000000000000000000000000000000000000000000000000600052602260045260246000fd5b620003bd8162000319565b8114620003c957600080fd5b50565b613fd380620003dc6000396000f3fe608060405234801561001057600080fd5b50600436106101585760003560e01c80638456cb59116100c3578063c87b56dd1161007c578063c87b56dd1461038d578063d807e62a146103bd578063d85d3d27146103db578063e985e9c51461040b578063f2fde38b1461043b578063f559f03c1461045757610158565b80638456cb59146102f15780638c40ae0f146102fb5780638da5cb5b1461031957806395d89b4114610337578063a22cb46514610355578063b88d4fde1461037157610158565b806342842e0e1161011557806342842e0e1461021d57806342966c68146102395780635c975abb146102695780636352211e1461028757806370a08231146102b7578063715018a6146102e757610158565b806301ffc9a71461015d57806306fdde031461018d578063081812fc146101ab578063095ea7b3146101db57806323b872dd146101f75780633f4ba83a14610213575b600080fd5b61017760048036038101906101729190612aaa565b610475565b604051610184919061319e565b60405180910390f35b610195610557565b6040516101a291906131b9565b60405180910390f35b6101c560048036038101906101c09190612b3d565b6105e9565b6040516101d291906130f3565b60405180910390f35b6101f560048036038101906101f09190612a6e565b61066e565b005b610211600480360381019061020c9190612968565b610786565b005b61021b6107e6565b005b61023760048036038101906102329190612968565b61086c565b005b610253600480360381019061024e9190612b3d565b61088c565b604051610260919061349b565b60405180910390f35b610271610915565b60405161027e919061319e565b60405180910390f35b6102a1600480360381019061029c9190612b3d565b61092c565b6040516102ae91906130f3565b60405180910390f35b6102d160048036038101906102cc9190612903565b6109de565b6040516102de919061349b565b60405180910390f35b6102ef610a96565b005b6102f9610b1e565b005b610303610ba4565b604051610310919061317c565b60405180910390f35b610321610e88565b60405161032e91906130f3565b60405180910390f35b61033f610eb1565b60405161034c91906131b9565b60405180910390f35b61036f600480360381019061036a9190612a32565b610f43565b005b61038b600480360381019061038691906129b7565b610f59565b005b6103a760048036038101906103a29190612b3d565b610fbb565b6040516103b491906131b9565b60405180910390f35b6103c5610fcd565b6040516103d2919061349b565b60405180910390f35b6103f560048036038101906103f09190612afc565b611017565b604051610402919061349b565b60405180910390f35b6104256004803603810190610420919061292c565b6110e8565b604051610432919061319e565b60405180910390f35b61045560048036038101906104509190612903565b61117c565b005b61045f611274565b60405161046c919061315a565b60405180910390f35b60007f80ac58cd000000000000000000000000000000000000000000000000000000007bffffffffffffffffffffffffffffffffffffffffffffffffffffffff1916827bffffffffffffffffffffffffffffffffffffffffffffffffffffffff1916148061054057507f5b5e139f000000000000000000000000000000000000000000000000000000007bffffffffffffffffffffffffffffffffffffffffffffffffffffffff1916827bffffffffffffffffffffffffffffffffffffffffffffffffffffffff1916145b80610550575061054f82611448565b5b9050919050565b60606001805461056690613784565b80601f016020809104026020016040519081016040528092919081815260200182805461059290613784565b80156105df5780601f106105b4576101008083540402835291602001916105df565b820191906000526020600020905b8154815290600101906020018083116105c257829003601f168201915b5050505050905090565b60006105f4826114b2565b610633576040517f08c379a000000000000000000000000000000000000000000000000000000000815260040161062a906133db565b60405180910390fd5b6005600083815260200190815260200160002060009054906101000a900473ffffffffffffffffffffffffffffffffffffffff169050919050565b60006106798261092c565b90508073ffffffffffffffffffffffffffffffffffffffff168373ffffffffffffffffffffffffffffffffffffffff1614156106ea576040517f08c379a00000000000000000000000000000000000000000000000000000000081526004016106e19061343b565b60405180910390fd5b8073ffffffffffffffffffffffffffffffffffffffff1661070961151e565b73ffffffffffffffffffffffffffffffffffffffff16148061073857506107378161073261151e565b6110e8565b5b610777576040517f08c379a000000000000000000000000000000000000000000000000000000000815260040161076e9061331b565b60405180910390fd5b6107818383611526565b505050565b61079761079161151e565b826115df565b6107d6576040517f08c379a00000000000000000000000000000000000000000000000000000000081526004016107cd9061347b565b60405180910390fd5b6107e18383836116bd565b505050565b6107ee61151e565b73ffffffffffffffffffffffffffffffffffffffff1661080c610e88565b73ffffffffffffffffffffffffffffffffffffffff1614610862576040517f08c379a0000000000000000000000000000000000000000000000000000000008152600401610859906133fb565b60405180910390fd5b61086a611924565b565b61088783838360405180602001604052806000815250610f59565b505050565b60003373ffffffffffffffffffffffffffffffffffffffff166108ae8361092c565b73ffffffffffffffffffffffffffffffffffffffff1614610904576040517f08c379a00000000000000000000000000000000000000000000000000000000081526004016108fb9061345b565b60405180910390fd5b61090d826119c6565b819050919050565b6000600860009054906101000a900460ff16905090565b6000806003600084815260200190815260200160002060009054906101000a900473ffffffffffffffffffffffffffffffffffffffff169050600073ffffffffffffffffffffffffffffffffffffffff168173ffffffffffffffffffffffffffffffffffffffff1614156109d5576040517f08c379a00000000000000000000000000000000000000000000000000000000081526004016109cc9061335b565b60405180910390fd5b80915050919050565b60008073ffffffffffffffffffffffffffffffffffffffff168273ffffffffffffffffffffffffffffffffffffffff161415610a4f576040517f08c379a0000000000000000000000000000000000000000000000000000000008152600401610a469061333b565b60405180910390fd5b600460008373ffffffffffffffffffffffffffffffffffffffff1673ffffffffffffffffffffffffffffffffffffffff168152602001908152602001600020549050919050565b610a9e61151e565b73ffffffffffffffffffffffffffffffffffffffff16610abc610e88565b73ffffffffffffffffffffffffffffffffffffffff1614610b12576040517f08c379a0000000000000000000000000000000000000000000000000000000008152600401610b09906133fb565b60405180910390fd5b610b1c60006119d2565b565b610b2661151e565b73ffffffffffffffffffffffffffffffffffffffff16610b44610e88565b73ffffffffffffffffffffffffffffffffffffffff1614610b9a576040517f08c379a0000000000000000000000000000000000000000000000000000000008152600401610b91906133fb565b60405180910390fd5b610ba2611a96565b565b60606000610bb26009611b39565b90506000808267ffffffffffffffff811115610bf7577f4e487b7100000000000000000000000000000000000000000000000000000000600052604160045260246000fd5b604051908082528060200260200182016040528015610c3057816020015b610c1d6126cd565b815260200190600190039081610c155790505b50905060005b83811015610d5b573373ffffffffffffffffffffffffffffffffffffffff16610c6a600183610c659190613603565b61092c565b73ffffffffffffffffffffffffffffffffffffffff161415610d4857610c9b600182610c969190613603565b610fbb565b828481518110610cd4577f4e487b7100000000000000000000000000000000000000000000000000000000600052603260045260246000fd5b602002602001015160200181905250600181610cf09190613603565b828481518110610d29577f4e487b7100000000000000000000000000000000000000000000000000000000600052603260045260246000fd5b602002602001015160000181815250508280610d44906137e7565b9350505b8080610d53906137e7565b915050610c36565b5060008267ffffffffffffffff811115610d9e577f4e487b7100000000000000000000000000000000000000000000000000000000600052604160045260246000fd5b604051908082528060200260200182016040528015610dd757816020015b610dc46126cd565b815260200190600190039081610dbc5790505b50905060005b83811015610e7d57828181518110610e1e577f4e487b7100000000000000000000000000000000000000000000000000000000600052603260045260246000fd5b6020026020010151828281518110610e5f577f4e487b7100000000000000000000000000000000000000000000000000000000600052603260045260246000fd5b60200260200101819052508080610e75906137e7565b915050610ddd565b508094505050505090565b60008060009054906101000a900473ffffffffffffffffffffffffffffffffffffffff16905090565b606060028054610ec090613784565b80601f0160208091040260200160405190810160405280929190818152602001828054610eec90613784565b8015610f395780601f10610f0e57610100808354040283529160200191610f39565b820191906000526020600020905b815481529060010190602001808311610f1c57829003601f168201915b5050505050905090565b610f55610f4e61151e565b8383611b47565b5050565b610f6a610f6461151e565b836115df565b610fa9576040517f08c379a0000000000000000000000000000000000000000000000000000000008152600401610fa09061347b565b60405180910390fd5b610fb584848484611cb4565b50505050565b6060610fc682611d10565b9050919050565b6000600b60003373ffffffffffffffffffffffffffffffffffffffff1673ffffffffffffffffffffffffffffffffffffffff16815260200190815260200160002080549050905090565b60006110236009611e62565b600061102f6009611b39565b9050600b600061103d61151e565b73ffffffffffffffffffffffffffffffffffffffff1673ffffffffffffffffffffffffffffffffffffffff1681526020019081526020016000208190806001815401808255809150506001900390600052602060002001600090919091909150556110a83382611e78565b6110b28184612052565b6110df600a60009054906101000a900473ffffffffffffffffffffffffffffffffffffffff166001610f43565b80915050919050565b6000600660008473ffffffffffffffffffffffffffffffffffffffff1673ffffffffffffffffffffffffffffffffffffffff16815260200190815260200160002060008373ffffffffffffffffffffffffffffffffffffffff1673ffffffffffffffffffffffffffffffffffffffff16815260200190815260200160002060009054906101000a900460ff16905092915050565b61118461151e565b73ffffffffffffffffffffffffffffffffffffffff166111a2610e88565b73ffffffffffffffffffffffffffffffffffffffff16146111f8576040517f08c379a00000000000000000000000000000000000000000000000000000000081526004016111ef906133fb565b60405180910390fd5b600073ffffffffffffffffffffffffffffffffffffffff168173ffffffffffffffffffffffffffffffffffffffff161415611268576040517f08c379a000000000000000000000000000000000000000000000000000000000815260040161125f9061323b565b60405180910390fd5b611271816119d2565b50565b60606000600b60003373ffffffffffffffffffffffffffffffffffffffff1673ffffffffffffffffffffffffffffffffffffffff16815260200190815260200160002080548060200260200160405190810160405280929190818152602001828054801561130157602002820191906000526020600020905b8154815260200190600101908083116112ed575b505050505090506000815167ffffffffffffffff81111561134b577f4e487b7100000000000000000000000000000000000000000000000000000000600052604160045260246000fd5b60405190808252806020026020018201604052801561137e57816020015b60608152602001906001900390816113695790505b50905060005b82518163ffffffff16101561143f576113e2838263ffffffff16815181106113d5577f4e487b7100000000000000000000000000000000000000000000000000000000600052603260045260246000fd5b6020026020010151610fbb565b828263ffffffff1681518110611421577f4e487b7100000000000000000000000000000000000000000000000000000000600052603260045260246000fd5b6020026020010181905250808061143790613830565b915050611384565b50809250505090565b60007f01ffc9a7000000000000000000000000000000000000000000000000000000007bffffffffffffffffffffffffffffffffffffffffffffffffffffffff1916827bffffffffffffffffffffffffffffffffffffffffffffffffffffffff1916149050919050565b60008073ffffffffffffffffffffffffffffffffffffffff166003600084815260200190815260200160002060009054906101000a900473ffffffffffffffffffffffffffffffffffffffff1673ffffffffffffffffffffffffffffffffffffffff1614159050919050565b600033905090565b816005600083815260200190815260200160002060006101000a81548173ffffffffffffffffffffffffffffffffffffffff021916908373ffffffffffffffffffffffffffffffffffffffff160217905550808273ffffffffffffffffffffffffffffffffffffffff166115998361092c565b73ffffffffffffffffffffffffffffffffffffffff167f8c5be1e5ebec7d5bd14f71427d1e84f3dd0314c0f7b2291e5b200ac8c7c3b92560405160405180910390a45050565b60006115ea826114b2565b611629576040517f08c379a0000000000000000000000000000000000000000000000000000000008152600401611620906132db565b60405180910390fd5b60006116348361092c565b90508073ffffffffffffffffffffffffffffffffffffffff168473ffffffffffffffffffffffffffffffffffffffff161480611676575061167581856110e8565b5b806116b457508373ffffffffffffffffffffffffffffffffffffffff1661169c846105e9565b73ffffffffffffffffffffffffffffffffffffffff16145b91505092915050565b8273ffffffffffffffffffffffffffffffffffffffff166116dd8261092c565b73ffffffffffffffffffffffffffffffffffffffff1614611733576040517f08c379a000000000000000000000000000000000000000000000000000000000815260040161172a9061325b565b60405180910390fd5b600073ffffffffffffffffffffffffffffffffffffffff168273ffffffffffffffffffffffffffffffffffffffff1614156117a3576040517f08c379a000000000000000000000000000000000000000000000000000000000815260040161179a9061329b565b60405180910390fd5b6117ae8383836120c6565b6117b9600082611526565b6001600460008573ffffffffffffffffffffffffffffffffffffffff1673ffffffffffffffffffffffffffffffffffffffff1681526020019081526020016000206000828254611809919061368a565b925050819055506001600460008473ffffffffffffffffffffffffffffffffffffffff1673ffffffffffffffffffffffffffffffffffffffff16815260200190815260200160002060008282546118609190613603565b92505081905550816003600083815260200190815260200160002060006101000a81548173ffffffffffffffffffffffffffffffffffffffff021916908373ffffffffffffffffffffffffffffffffffffffff160217905550808273ffffffffffffffffffffffffffffffffffffffff168473ffffffffffffffffffffffffffffffffffffffff167fddf252ad1be2c89b69c2b068fc378daa952ba7f163c4a11628f55a4df523b3ef60405160405180910390a461191f8383836120d6565b505050565b61192c610915565b61196b576040517f08c379a0000000000000000000000000000000000000000000000000000000008152600401611962906131fb565b60405180910390fd5b6000600860006101000a81548160ff0219169083151502179055507f5db9ee0a495bf2e6ff9c91a7834c1ba4fdd244a5e8aa4e537bd38aeae4b073aa6119af61151e565b6040516119bc91906130f3565b60405180910390a1565b6119cf816120db565b50565b60008060009054906101000a900473ffffffffffffffffffffffffffffffffffffffff169050816000806101000a81548173ffffffffffffffffffffffffffffffffffffffff021916908373ffffffffffffffffffffffffffffffffffffffff1602179055508173ffffffffffffffffffffffffffffffffffffffff168173ffffffffffffffffffffffffffffffffffffffff167f8be0079c531659141344cd1fd0a4f28419497f9722a3daafe3b4186f6b6457e060405160405180910390a35050565b611a9e610915565b15611ade576040517f08c379a0000000000000000000000000000000000000000000000000000000008152600401611ad5906132fb565b60405180910390fd5b6001600860006101000a81548160ff0219169083151502179055507f62e78cea01bee320cd4e420270b5ea74000d11b0c9f74754ebdbfc544b05a258611b2261151e565b604051611b2f91906130f3565b60405180910390a1565b600081600001549050919050565b8173ffffffffffffffffffffffffffffffffffffffff168373ffffffffffffffffffffffffffffffffffffffff161415611bb6576040517f08c379a0000000000000000000000000000000000000000000000000000000008152600401611bad906132bb565b60405180910390fd5b80600660008573ffffffffffffffffffffffffffffffffffffffff1673ffffffffffffffffffffffffffffffffffffffff16815260200190815260200160002060008473ffffffffffffffffffffffffffffffffffffffff1673ffffffffffffffffffffffffffffffffffffffff16815260200190815260200160002060006101000a81548160ff0219169083151502179055508173ffffffffffffffffffffffffffffffffffffffff168373ffffffffffffffffffffffffffffffffffffffff167f17307eab39ab6107e8899845ad3d59bd9653f200f220920489ca2b5937696c3183604051611ca7919061319e565b60405180910390a3505050565b611cbf8484846116bd565b611ccb8484848461212e565b611d0a576040517f08c379a0000000000000000000000000000000000000000000000000000000008152600401611d019061321b565b60405180910390fd5b50505050565b6060611d1b826114b2565b611d5a576040517f08c379a0000000000000000000000000000000000000000000000000000000008152600401611d51906133bb565b60405180910390fd5b6000600760008481526020019081526020016000208054611d7a90613784565b80601f0160208091040260200160405190810160405280929190818152602001828054611da690613784565b8015611df35780601f10611dc857610100808354040283529160200191611df3565b820191906000526020600020905b815481529060010190602001808311611dd657829003601f168201915b505050505090506000611e046122c5565b9050600081511415611e1a578192505050611e5d565b600082511115611e4f578082604051602001611e379291906130cf565b60405160208183030381529060405292505050611e5d565b611e58846122dc565b925050505b919050565b6001816000016000828254019250508190555050565b600073ffffffffffffffffffffffffffffffffffffffff168273ffffffffffffffffffffffffffffffffffffffff161415611ee8576040517f08c379a0000000000000000000000000000000000000000000000000000000008152600401611edf9061339b565b60405180910390fd5b611ef1816114b2565b15611f31576040517f08c379a0000000000000000000000000000000000000000000000000000000008152600401611f289061327b565b60405180910390fd5b611f3d600083836120c6565b6001600460008473ffffffffffffffffffffffffffffffffffffffff1673ffffffffffffffffffffffffffffffffffffffff1681526020019081526020016000206000828254611f8d9190613603565b92505081905550816003600083815260200190815260200160002060006101000a81548173ffffffffffffffffffffffffffffffffffffffff021916908373ffffffffffffffffffffffffffffffffffffffff160217905550808273ffffffffffffffffffffffffffffffffffffffff16600073ffffffffffffffffffffffffffffffffffffffff167fddf252ad1be2c89b69c2b068fc378daa952ba7f163c4a11628f55a4df523b3ef60405160405180910390a461204e600083836120d6565b5050565b61205b826114b2565b61209a576040517f08c379a00000000000000000000000000000000000000000000000000000000081526004016120919061337b565b60405180910390fd5b806007600084815260200190815260200160002090805190602001906120c19291906126e7565b505050565b6120d1838383612383565b505050565b505050565b6120e4816123db565b600060076000838152602001908152602001600020805461210490613784565b90501461212b5760076000828152602001908152602001600020600061212a919061276d565b5b50565b600061214f8473ffffffffffffffffffffffffffffffffffffffff166124f8565b156122b8578373ffffffffffffffffffffffffffffffffffffffff1663150b7a0261217861151e565b8786866040518563ffffffff1660e01b815260040161219a949392919061310e565b602060405180830381600087803b1580156121b457600080fd5b505af19250505080156121e557506040513d601f19601f820116820180604052508101906121e29190612ad3565b60015b612268573d8060008114612215576040519150601f19603f3d011682016040523d82523d6000602084013e61221a565b606091505b50600081511415612260576040517f08c379a00000000000000000000000000000000000000000000000000000000081526004016122579061321b565b60405180910390fd5b805181602001fd5b63150b7a0260e01b7bffffffffffffffffffffffffffffffffffffffffffffffffffffffff1916817bffffffffffffffffffffffffffffffffffffffffffffffffffffffff1916149150506122bd565b600190505b949350505050565b606060405180602001604052806000815250905090565b60606122e7826114b2565b612326576040517f08c379a000000000000000000000000000000000000000000000000000000000815260040161231d9061341b565b60405180910390fd5b60006123306122c5565b90506000815111612350576040518060200160405280600081525061237b565b8061235a8461251b565b60405160200161236b9291906130cf565b6040516020818303038152906040525b915050919050565b61238e8383836126c8565b612396610915565b156123d6576040517f08c379a00000000000000000000000000000000000000000000000000000000081526004016123cd906131db565b60405180910390fd5b505050565b60006123e68261092c565b90506123f4816000846120c6565b6123ff600083611526565b6001600460008373ffffffffffffffffffffffffffffffffffffffff1673ffffffffffffffffffffffffffffffffffffffff168152602001908152602001600020600082825461244f919061368a565b925050819055506003600083815260200190815260200160002060006101000a81549073ffffffffffffffffffffffffffffffffffffffff021916905581600073ffffffffffffffffffffffffffffffffffffffff168273ffffffffffffffffffffffffffffffffffffffff167fddf252ad1be2c89b69c2b068fc378daa952ba7f163c4a11628f55a4df523b3ef60405160405180910390a46124f4816000846120d6565b5050565b6000808273ffffffffffffffffffffffffffffffffffffffff163b119050919050565b60606000821415612563576040518060400160405280600181526020017f300000000000000000000000000000000000000000000000000000000000000081525090506126c3565b600082905060005b6000821461259557808061257e906137e7565b915050600a8261258e9190613659565b915061256b565b60008167ffffffffffffffff8111156125d7577f4e487b7100000000000000000000000000000000000000000000000000000000600052604160045260246000fd5b6040519080825280601f01601f1916602001820160405280156126095781602001600182028036833780820191505090505b5090505b600085146126bc57600182612622919061368a565b9150600a85612631919061385d565b603061263d9190613603565b60f81b818381518110612679577f4e487b7100000000000000000000000000000000000000000000000000000000600052603260045260246000fd5b60200101907effffffffffffffffffffffffffffffffffffffffffffffffffffffffffffff1916908160001a905350600a856126b59190613659565b945061260d565b8093505050505b919050565b505050565b604051806040016040528060008152602001606081525090565b8280546126f390613784565b90600052602060002090601f016020900481019282612715576000855561275c565b82601f1061272e57805160ff191683800117855561275c565b8280016001018555821561275c579182015b8281111561275b578251825591602001919060010190612740565b5b50905061276991906127ad565b5090565b50805461277990613784565b6000825580601f1061278b57506127aa565b601f0160209004906000526020600020908101906127a991906127ad565b5b50565b5b808211156127c65760008160009055506001016127ae565b5090565b60006127dd6127d8846134db565b6134b6565b9050828152602081018484840111156127f557600080fd5b612800848285613742565b509392505050565b600061281b6128168461350c565b6134b6565b90508281526020810184848401111561283357600080fd5b61283e848285613742565b509392505050565b60008135905061285581613f41565b92915050565b60008135905061286a81613f58565b92915050565b60008135905061287f81613f6f565b92915050565b60008151905061289481613f6f565b92915050565b600082601f8301126128ab57600080fd5b81356128bb8482602086016127ca565b91505092915050565b600082601f8301126128d557600080fd5b81356128e5848260208601612808565b91505092915050565b6000813590506128fd81613f86565b92915050565b60006020828403121561291557600080fd5b600061292384828501612846565b91505092915050565b6000806040838503121561293f57600080fd5b600061294d85828601612846565b925050602061295e85828601612846565b9150509250929050565b60008060006060848603121561297d57600080fd5b600061298b86828701612846565b935050602061299c86828701612846565b92505060406129ad868287016128ee565b9150509250925092565b600080600080608085870312156129cd57600080fd5b60006129db87828801612846565b94505060206129ec87828801612846565b93505060406129fd878288016128ee565b925050606085013567ffffffffffffffff811115612a1a57600080fd5b612a268782880161289a565b91505092959194509250565b60008060408385031215612a4557600080fd5b6000612a5385828601612846565b9250506020612a648582860161285b565b9150509250929050565b60008060408385031215612a8157600080fd5b6000612a8f85828601612846565b9250506020612aa0858286016128ee565b9150509250929050565b600060208284031215612abc57600080fd5b6000612aca84828501612870565b91505092915050565b600060208284031215612ae557600080fd5b6000612af384828501612885565b91505092915050565b600060208284031215612b0e57600080fd5b600082013567ffffffffffffffff811115612b2857600080fd5b612b34848285016128c4565b91505092915050565b600060208284031215612b4f57600080fd5b6000612b5d848285016128ee565b91505092915050565b6000612b728383612ccf565b905092915050565b6000612b868383613074565b905092915050565b612b97816136be565b82525050565b6000612ba88261355d565b612bb281856135a3565b935083602082028501612bc48561353d565b8060005b85811015612c005784840389528151612be18582612b66565b9450612bec83613589565b925060208a01995050600181019050612bc8565b50829750879550505050505092915050565b6000612c1d82613568565b612c2781856135b4565b935083602082028501612c398561354d565b8060005b85811015612c755784840389528151612c568582612b7a565b9450612c6183613596565b925060208a01995050600181019050612c3d565b50829750879550505050505092915050565b612c90816136d0565b82525050565b6000612ca182613573565b612cab81856135c5565b9350612cbb818560208601613751565b612cc48161394a565b840191505092915050565b6000612cda8261357e565b612ce481856135d6565b9350612cf4818560208601613751565b612cfd8161394a565b840191505092915050565b6000612d138261357e565b612d1d81856135e7565b9350612d2d818560208601613751565b612d368161394a565b840191505092915050565b6000612d4c8261357e565b612d5681856135f8565b9350612d66818560208601613751565b80840191505092915050565b6000612d7f602b836135e7565b9150612d8a8261395b565b604082019050919050565b6000612da26014836135e7565b9150612dad826139aa565b602082019050919050565b6000612dc56032836135e7565b9150612dd0826139d3565b604082019050919050565b6000612de86026836135e7565b9150612df382613a22565b604082019050919050565b6000612e0b6025836135e7565b9150612e1682613a71565b604082019050919050565b6000612e2e601c836135e7565b9150612e3982613ac0565b602082019050919050565b6000612e516024836135e7565b9150612e5c82613ae9565b604082019050919050565b6000612e746019836135e7565b9150612e7f82613b38565b602082019050919050565b6000612e97602c836135e7565b9150612ea282613b61565b604082019050919050565b6000612eba6010836135e7565b9150612ec582613bb0565b602082019050919050565b6000612edd6038836135e7565b9150612ee882613bd9565b604082019050919050565b6000612f00602a836135e7565b9150612f0b82613c28565b604082019050919050565b6000612f236029836135e7565b9150612f2e82613c77565b604082019050919050565b6000612f46602e836135e7565b9150612f5182613cc6565b604082019050919050565b6000612f696020836135e7565b9150612f7482613d15565b602082019050919050565b6000612f8c6031836135e7565b9150612f9782613d3e565b604082019050919050565b6000612faf602c836135e7565b9150612fba82613d8d565b604082019050919050565b6000612fd26020836135e7565b9150612fdd82613ddc565b602082019050919050565b6000612ff5602f836135e7565b915061300082613e05565b604082019050919050565b60006130186021836135e7565b915061302382613e54565b604082019050919050565b600061303b6030836135e7565b915061304682613ea3565b604082019050919050565b600061305e6031836135e7565b915061306982613ef2565b604082019050919050565b600060408301600083015161308c60008601826130b1565b50602083015184820360208601526130a48282612ccf565b9150508091505092915050565b6130ba81613728565b82525050565b6130c981613728565b82525050565b60006130db8285612d41565b91506130e78284612d41565b91508190509392505050565b60006020820190506131086000830184612b8e565b92915050565b60006080820190506131236000830187612b8e565b6131306020830186612b8e565b61313d60408301856130c0565b818103606083015261314f8184612c96565b905095945050505050565b600060208201905081810360008301526131748184612b9d565b905092915050565b600060208201905081810360008301526131968184612c12565b905092915050565b60006020820190506131b36000830184612c87565b92915050565b600060208201905081810360008301526131d38184612d08565b905092915050565b600060208201905081810360008301526131f481612d72565b9050919050565b6000602082019050818103600083015261321481612d95565b9050919050565b6000602082019050818103600083015261323481612db8565b9050919050565b6000602082019050818103600083015261325481612ddb565b9050919050565b6000602082019050818103600083015261327481612dfe565b9050919050565b6000602082019050818103600083015261329481612e21565b9050919050565b600060208201905081810360008301526132b481612e44565b9050919050565b600060208201905081810360008301526132d481612e67565b9050919050565b600060208201905081810360008301526132f481612e8a565b9050919050565b6000602082019050818103600083015261331481612ead565b9050919050565b6000602082019050818103600083015261333481612ed0565b9050919050565b6000602082019050818103600083015261335481612ef3565b9050919050565b6000602082019050818103600083015261337481612f16565b9050919050565b6000602082019050818103600083015261339481612f39565b9050919050565b600060208201905081810360008301526133b481612f5c565b9050919050565b600060208201905081810360008301526133d481612f7f565b9050919050565b600060208201905081810360008301526133f481612fa2565b9050919050565b6000602082019050818103600083015261341481612fc5565b9050919050565b6000602082019050818103600083015261343481612fe8565b9050919050565b600060208201905081810360008301526134548161300b565b9050919050565b600060208201905081810360008301526134748161302e565b9050919050565b6000602082019050818103600083015261349481613051565b9050919050565b60006020820190506134b060008301846130c0565b92915050565b60006134c06134d1565b90506134cc82826137b6565b919050565b6000604051905090565b600067ffffffffffffffff8211156134f6576134f561391b565b5b6134ff8261394a565b9050602081019050919050565b600067ffffffffffffffff8211156135275761352661391b565b5b6135308261394a565b9050602081019050919050565b6000819050602082019050919050565b6000819050602082019050919050565b600081519050919050565b600081519050919050565b600081519050919050565b600081519050919050565b6000602082019050919050565b6000602082019050919050565b600082825260208201905092915050565b600082825260208201905092915050565b600082825260208201905092915050565b600082825260208201905092915050565b600082825260208201905092915050565b600081905092915050565b600061360e82613728565b915061361983613728565b9250827fffffffffffffffffffffffffffffffffffffffffffffffffffffffffffffffff0382111561364e5761364d61388e565b5b828201905092915050565b600061366482613728565b915061366f83613728565b92508261367f5761367e6138bd565b5b828204905092915050565b600061369582613728565b91506136a083613728565b9250828210156136b3576136b261388e565b5b828203905092915050565b60006136c982613708565b9050919050565b60008115159050919050565b60007fffffffff0000000000000000000000000000000000000000000000000000000082169050919050565b600073ffffffffffffffffffffffffffffffffffffffff82169050919050565b6000819050919050565b600063ffffffff82169050919050565b82818337600083830152505050565b60005b8381101561376f578082015181840152602081019050613754565b8381111561377e576000848401525b50505050565b6000600282049050600182168061379c57607f821691505b602082108114156137b0576137af6138ec565b5b50919050565b6137bf8261394a565b810181811067ffffffffffffffff821117156137de576137dd61391b565b5b80604052505050565b60006137f282613728565b91507fffffffffffffffffffffffffffffffffffffffffffffffffffffffffffffffff8214156138255761382461388e565b5b600182019050919050565b600061383b82613732565b915063ffffffff8214156138525761385161388e565b5b600182019050919050565b600061386882613728565b915061387383613728565b925082613883576138826138bd565b5b828206905092915050565b7f4e487b7100000000000000000000000000000000000000000000000000000000600052601160045260246000fd5b7f4e487b7100000000000000000000000000000000000000000000000000000000600052601260045260246000fd5b7f4e487b7100000000000000000000000000000000000000000000000000000000600052602260045260246000fd5b7f4e487b7100000000000000000000000000000000000000000000000000000000600052604160045260246000fd5b6000601f19601f8301169050919050565b7f4552433732315061757361626c653a20746f6b656e207472616e73666572207760008201527f68696c6520706175736564000000000000000000000000000000000000000000602082015250565b7f5061757361626c653a206e6f7420706175736564000000000000000000000000600082015250565b7f4552433732313a207472616e7366657220746f206e6f6e20455243373231526560008201527f63656976657220696d706c656d656e7465720000000000000000000000000000602082015250565b7f4f776e61626c653a206e6577206f776e657220697320746865207a65726f206160008201527f6464726573730000000000000000000000000000000000000000000000000000602082015250565b7f4552433732313a207472616e736665722066726f6d20696e636f72726563742060008201527f6f776e6572000000000000000000000000000000000000000000000000000000602082015250565b7f4552433732313a20746f6b656e20616c7265616479206d696e74656400000000600082015250565b7f4552433732313a207472616e7366657220746f20746865207a65726f2061646460008201527f7265737300000000000000000000000000000000000000000000000000000000602082015250565b7f4552433732313a20617070726f766520746f2063616c6c657200000000000000600082015250565b7f4552433732313a206f70657261746f7220717565727920666f72206e6f6e657860008201527f697374656e7420746f6b656e0000000000000000000000000000000000000000602082015250565b7f5061757361626c653a2070617573656400000000000000000000000000000000600082015250565b7f4552433732313a20617070726f76652063616c6c6572206973206e6f74206f7760008201527f6e6572206e6f7220617070726f76656420666f7220616c6c0000000000000000602082015250565b7f4552433732313a2062616c616e636520717565727920666f7220746865207a6560008201527f726f206164647265737300000000000000000000000000000000000000000000602082015250565b7f4552433732313a206f776e657220717565727920666f72206e6f6e657869737460008201527f656e7420746f6b656e0000000000000000000000000000000000000000000000602082015250565b7f45524337323155524953746f726167653a2055524920736574206f66206e6f6e60008201527f6578697374656e7420746f6b656e000000000000000000000000000000000000602082015250565b7f4552433732313a206d696e7420746f20746865207a65726f2061646472657373600082015250565b7f45524337323155524953746f726167653a2055524920717565727920666f722060008201527f6e6f6e6578697374656e7420746f6b656e000000000000000000000000000000602082015250565b7f4552433732313a20617070726f76656420717565727920666f72206e6f6e657860008201527f697374656e7420746f6b656e0000000000000000000000000000000000000000602082015250565b7f4f776e61626c653a2063616c6c6572206973206e6f7420746865206f776e6572600082015250565b7f4552433732314d657461646174613a2055524920717565727920666f72206e6f60008201527f6e6578697374656e7420746f6b656e0000000000000000000000000000000000602082015250565b7f4552433732313a20617070726f76616c20746f2063757272656e74206f776e6560008201527f7200000000000000000000000000000000000000000000000000000000000000602082015250565b7f447265616d76657273653a204e6f7420617574686f72697a656420746f20627560008201527f726e20676976656e20746f6b656e496400000000000000000000000000000000602082015250565b7f4552433732313a207472616e736665722063616c6c6572206973206e6f74206f60008201527f776e6572206e6f7220617070726f766564000000000000000000000000000000602082015250565b613f4a816136be565b8114613f5557600080fd5b50565b613f61816136d0565b8114613f6c57600080fd5b50565b613f78816136dc565b8114613f8357600080fd5b50565b613f8f81613728565b8114613f9a57600080fd5b5056fea2646970667358221220ab066ec6c14522925e9633cbc637fd45b483cd66756245221a7b96e70489f7b964736f6c63430008040033",
  "linkReferences": {},
  "deployedLinkReferences": {}
}