{
  "_format": "hh-sol-artifact-1",
  "contractName": "Marketplace",
  "sourceName": "contracts/Marketplace.sol",
  "abi": [
    {
      "inputs": [],
      "stateMutability": "nonpayable",
      "type": "constructor"
    },
    {
      "anonymous": false,
      "inputs": [
        {
          "indexed": true,
          "internalType": "uint256",
          "name": "itemID",
          "type": "uint256"
        },
        {
          "indexed": true,
          "internalType": "address",
          "name": "contractAddress",
          "type": "address"
        },
        {
          "indexed": true,
          "internalType": "uint256",
          "name": "tokenId",
          "type": "uint256"
        },
        {
          "indexed": false,
          "internalType": "address",
          "name": "seller",
          "type": "address"
        },
        {
          "indexed": false,
          "internalType": "address",
          "name": "owner",
          "type": "address"
        },
        {
          "indexed": false,
          "internalType": "uint256",
          "name": "price",
          "type": "uint256"
        },
        {
          "indexed": false,
          "internalType": "bool",
          "name": "sold",
          "type": "bool"
        }
      ],
      "name": "MarketItemCreated",
      "type": "event"
    },
    {
      "anonymous": false,
      "inputs": [
        {
          "indexed": true,
          "internalType": "uint256",
          "name": "itemID",
          "type": "uint256"
        },
        {
          "indexed": true,
          "internalType": "address",
          "name": "contractAddress",
          "type": "address"
        },
        {
          "indexed": true,
          "internalType": "uint256",
          "name": "tokenId",
          "type": "uint256"
        },
        {
          "indexed": false,
          "internalType": "address",
          "name": "seller",
          "type": "address"
        },
        {
          "indexed": false,
          "internalType": "address",
          "name": "owner",
          "type": "address"
        },
        {
          "indexed": false,
          "internalType": "uint256",
          "name": "price",
          "type": "uint256"
        },
        {
          "indexed": false,
          "internalType": "bool",
          "name": "sold",
          "type": "bool"
        }
      ],
      "name": "MarketItemSale",
      "type": "event"
    },
    {
      "anonymous": false,
      "inputs": [
        {
          "indexed": true,
          "internalType": "address",
          "name": "previousOwner",
          "type": "address"
        },
        {
          "indexed": true,
          "internalType": "address",
          "name": "newOwner",
          "type": "address"
        }
      ],
      "name": "OwnershipTransferred",
      "type": "event"
    },
    {
      "inputs": [
        {
          "internalType": "address",
          "name": "contractAddress",
          "type": "address"
        },
        {
          "internalType": "uint256",
          "name": "tokenId",
          "type": "uint256"
        },
        {
          "internalType": "uint256",
          "name": "price",
          "type": "uint256"
        }
      ],
      "name": "createMarketItem",
      "outputs": [],
      "stateMutability": "payable",
      "type": "function"
    },
    {
      "inputs": [
        {
          "internalType": "address",
          "name": "contractAddress",
          "type": "address"
        },
        {
          "internalType": "uint256",
          "name": "itemId",
          "type": "uint256"
        }
      ],
      "name": "createMarketSale",
      "outputs": [],
      "stateMutability": "payable",
      "type": "function"
    },
    {
      "inputs": [],
      "name": "fetchItemsCreated",
      "outputs": [
        {
          "components": [
            {
              "internalType": "uint256",
              "name": "itemId",
              "type": "uint256"
            },
            {
              "internalType": "address",
              "name": "nftContract",
              "type": "address"
            },
            {
              "internalType": "uint256",
              "name": "tokenId",
              "type": "uint256"
            },
            {
              "internalType": "address payable",
              "name": "seller",
              "type": "address"
            },
            {
              "internalType": "address payable",
              "name": "owner",
              "type": "address"
            },
            {
              "internalType": "uint256",
              "name": "price",
              "type": "uint256"
            },
            {
              "internalType": "bool",
              "name": "sold",
              "type": "bool"
            }
          ],
          "internalType": "struct Marketplace.MarketItem[]",
          "name": "",
          "type": "tuple[]"
        }
      ],
      "stateMutability": "view",
      "type": "function"
    },
    {
      "inputs": [],
      "name": "fetchMarketItems",
      "outputs": [
        {
          "components": [
            {
              "internalType": "uint256",
              "name": "itemId",
              "type": "uint256"
            },
            {
              "internalType": "address",
              "name": "nftContract",
              "type": "address"
            },
            {
              "internalType": "uint256",
              "name": "tokenId",
              "type": "uint256"
            },
            {
              "internalType": "address payable",
              "name": "seller",
              "type": "address"
            },
            {
              "internalType": "address payable",
              "name": "owner",
              "type": "address"
            },
            {
              "internalType": "uint256",
              "name": "price",
              "type": "uint256"
            },
            {
              "internalType": "bool",
              "name": "sold",
              "type": "bool"
            }
          ],
          "internalType": "struct Marketplace.MarketItem[]",
          "name": "",
          "type": "tuple[]"
        }
      ],
      "stateMutability": "view",
      "type": "function"
    },
    {
      "inputs": [],
      "name": "fetchMyNFTs",
      "outputs": [
        {
          "components": [
            {
              "internalType": "uint256",
              "name": "itemId",
              "type": "uint256"
            },
            {
              "internalType": "address",
              "name": "nftContract",
              "type": "address"
            },
            {
              "internalType": "uint256",
              "name": "tokenId",
              "type": "uint256"
            },
            {
              "internalType": "address payable",
              "name": "seller",
              "type": "address"
            },
            {
              "internalType": "address payable",
              "name": "owner",
              "type": "address"
            },
            {
              "internalType": "uint256",
              "name": "price",
              "type": "uint256"
            },
            {
              "internalType": "bool",
              "name": "sold",
              "type": "bool"
            }
          ],
          "internalType": "struct Marketplace.MarketItem[]",
          "name": "",
          "type": "tuple[]"
        }
      ],
      "stateMutability": "view",
      "type": "function"
    },
    {
      "inputs": [],
      "name": "getCreatorEarning",
      "outputs": [
        {
          "internalType": "uint256",
          "name": "",
          "type": "uint256"
        }
      ],
      "stateMutability": "view",
      "type": "function"
    },
    {
      "inputs": [
        {
          "internalType": "uint256",
          "name": "_itemId",
          "type": "uint256"
        }
      ],
      "name": "getItemInfo",
      "outputs": [
        {
          "components": [
            {
              "internalType": "uint256",
              "name": "itemId",
              "type": "uint256"
            },
            {
              "internalType": "address",
              "name": "nftContract",
              "type": "address"
            },
            {
              "internalType": "uint256",
              "name": "tokenId",
              "type": "uint256"
            },
            {
              "internalType": "address payable",
              "name": "seller",
              "type": "address"
            },
            {
              "internalType": "address payable",
              "name": "owner",
              "type": "address"
            },
            {
              "internalType": "uint256",
              "name": "price",
              "type": "uint256"
            },
            {
              "internalType": "bool",
              "name": "sold",
              "type": "bool"
            }
          ],
          "internalType": "struct Marketplace.MarketItem",
          "name": "",
          "type": "tuple"
        }
      ],
      "stateMutability": "view",
      "type": "function"
    },
    {
      "inputs": [],
      "name": "getNftSoldByCreator",
      "outputs": [
        {
          "internalType": "uint256",
          "name": "",
          "type": "uint256"
        }
      ],
      "stateMutability": "view",
      "type": "function"
    },
    {
      "inputs": [],
      "name": "getlistingPrice",
      "outputs": [
        {
          "internalType": "uint256",
          "name": "",
          "type": "uint256"
        }
      ],
      "stateMutability": "view",
      "type": "function"
    },
    {
      "inputs": [
        {
          "internalType": "uint256",
          "name": "_itemID",
          "type": "uint256"
        },
        {
          "internalType": "uint256",
          "name": "price",
          "type": "uint256"
        }
      ],
      "name": "listMarketItem",
      "outputs": [],
      "stateMutability": "payable",
      "type": "function"
    },
    {
      "inputs": [
        {
          "internalType": "address",
          "name": "contractAddress",
          "type": "address"
        },
        {
          "internalType": "uint256",
          "name": "tokenId",
          "type": "uint256"
        },
        {
          "internalType": "uint256",
          "name": "price",
          "type": "uint256"
        }
      ],
      "name": "listNftWithCheck",
      "outputs": [],
      "stateMutability": "payable",
      "type": "function"
    },
    {
      "inputs": [
        {
          "internalType": "address",
          "name": "operator",
          "type": "address"
        },
        {
          "internalType": "address",
          "name": "from",
          "type": "address"
        },
        {
          "internalType": "uint256",
          "name": "tokenId",
          "type": "uint256"
        },
        {
          "internalType": "bytes",
          "name": "data",
          "type": "bytes"
        }
      ],
      "name": "onERC721Received",
      "outputs": [
        {
          "internalType": "bytes4",
          "name": "",
          "type": "bytes4"
        }
      ],
      "stateMutability": "nonpayable",
      "type": "function"
    },
    {
      "inputs": [],
      "name": "owner",
      "outputs": [
        {
          "internalType": "address",
          "name": "",
          "type": "address"
        }
      ],
      "stateMutability": "view",
      "type": "function"
    },
    {
      "inputs": [],
      "name": "renounceOwnership",
      "outputs": [],
      "stateMutability": "nonpayable",
      "type": "function"
    },
    {
      "inputs": [
        {
          "internalType": "address",
          "name": "newOwner",
          "type": "address"
        }
      ],
      "name": "transferOwnership",
      "outputs": [],
      "stateMutability": "nonpayable",
      "type": "function"
    }
  ],
  "bytecode": "0x608060405266b1a2bc2ec500006004553480156200001c57600080fd5b506200003d620000316200008b60201b60201c565b6200009360201b60201c565b6001808190555033600860006101000a81548173ffffffffffffffffffffffffffffffffffffffff021916908373ffffffffffffffffffffffffffffffffffffffff16021790555062000157565b600033905090565b60008060009054906101000a900473ffffffffffffffffffffffffffffffffffffffff169050816000806101000a81548173ffffffffffffffffffffffffffffffffffffffff021916908373ffffffffffffffffffffffffffffffffffffffff1602179055508173ffffffffffffffffffffffffffffffffffffffff168173ffffffffffffffffffffffffffffffffffffffff167f8be0079c531659141344cd1fd0a4f28419497f9722a3daafe3b4186f6b6457e060405160405180910390a35050565b612b7980620001676000396000f3fe6080604052600436106100e85760003560e01c8063715018a61161008a578063de7fe3e711610059578063de7fe3e714610288578063e8e61bd5146102c5578063f064c32e146102f0578063f2fde38b1461031b576100e8565b8063715018a61461020e5780638da5cb5b14610225578063a7c573a114610250578063c23b139e1461026c576100e8565b80632796390c116100c65780632796390c1461018057806349d8a1901461019c57806358eb2df5146101c75780636b0a2d11146101e3576100e8565b80630f08efe0146100ed578063150b7a0214610118578063202e374014610155575b600080fd5b3480156100f957600080fd5b50610102610344565b60405161010f919061254b565b60405180910390f35b34801561012457600080fd5b5061013f600480360381019061013a9190611ff0565b6106c3565b60405161014c919061256d565b60405180910390f35b34801561016157600080fd5b5061016a6106d8565b604051610177919061254b565b60405180910390f35b61019a60048036038101906101959190612124565b610a72565b005b3480156101a857600080fd5b506101b1610e1a565b6040516101be91906126c3565b60405180910390f35b6101e160048036038101906101dc91906120ac565b610e68565b005b3480156101ef57600080fd5b506101f8611226565b60405161020591906126c3565b60405180910390f35b34801561021a57600080fd5b50610223611230565b005b34801561023157600080fd5b5061023a6112b8565b60405161024791906124b4565b60405180910390f35b61026a600480360381019061026591906120ac565b6112e1565b005b61028660048036038101906102819190612070565b61135f565b005b34801561029457600080fd5b506102af60048036038101906102aa91906120fb565b61173e565b6040516102bc91906126a8565b60405180910390f35b3480156102d157600080fd5b506102da6118a6565b6040516102e791906126c3565b60405180910390f35b3480156102fc57600080fd5b506103056118f4565b604051610312919061254b565b60405180910390f35b34801561032757600080fd5b50610342600480360381019061033d9190611fc7565b611c8e565b005b606060006103526002611d86565b905060006103606003611d86565b8261036b919061277e565b90506000808267ffffffffffffffff8111156103b0577f4e487b7100000000000000000000000000000000000000000000000000000000600052604160045260246000fd5b6040519080825280602002602001820160405280156103e957816020015b6103d6611ed2565b8152602001906001900390816103ce5790505b50905060005b848110156106b857600073ffffffffffffffffffffffffffffffffffffffff16600960006001846104209190612728565b815260200190815260200160002060040160009054906101000a900473ffffffffffffffffffffffffffffffffffffffff1673ffffffffffffffffffffffffffffffffffffffff1614806104e157503073ffffffffffffffffffffffffffffffffffffffff16600960006001846104979190612728565b815260200190815260200160002060040160009054906101000a900473ffffffffffffffffffffffffffffffffffffffff1673ffffffffffffffffffffffffffffffffffffffff16145b156106a5576000600960006001846104f99190612728565b81526020019081526020016000209050806040518060e0016040529081600082015481526020016001820160009054906101000a900473ffffffffffffffffffffffffffffffffffffffff1673ffffffffffffffffffffffffffffffffffffffff1673ffffffffffffffffffffffffffffffffffffffff168152602001600282015481526020016003820160009054906101000a900473ffffffffffffffffffffffffffffffffffffffff1673ffffffffffffffffffffffffffffffffffffffff1673ffffffffffffffffffffffffffffffffffffffff1681526020016004820160009054906101000a900473ffffffffffffffffffffffffffffffffffffffff1673ffffffffffffffffffffffffffffffffffffffff1673ffffffffffffffffffffffffffffffffffffffff168152602001600582015481526020016006820160009054906101000a900460ff161515151581525050838581518110610689577f4e487b7100000000000000000000000000000000000000000000000000000000600052603260045260246000fd5b60200260200101819052506001846106a19190612728565b9350505b80806106b09061286e565b9150506103ef565b508094505050505090565b600063150b7a0260e01b905095945050505050565b606060006106e66002611d86565b905060008060005b8381101561078f573373ffffffffffffffffffffffffffffffffffffffff166009600060018461071e9190612728565b815260200190815260200160002060040160009054906101000a900473ffffffffffffffffffffffffffffffffffffffff1673ffffffffffffffffffffffffffffffffffffffff16141561077c576001836107799190612728565b92505b80806107879061286e565b9150506106ee565b5060008267ffffffffffffffff8111156107d2577f4e487b7100000000000000000000000000000000000000000000000000000000600052604160045260246000fd5b60405190808252806020026020018201604052801561080b57816020015b6107f8611ed2565b8152602001906001900390816107f05790505b50905060005b84811015610a67573373ffffffffffffffffffffffffffffffffffffffff16600960006001846108419190612728565b815260200190815260200160002060040160009054906101000a900473ffffffffffffffffffffffffffffffffffffffff1673ffffffffffffffffffffffffffffffffffffffff161415610a5457600060018261089e9190612728565b90506000600960008381526020019081526020016000209050806040518060e0016040529081600082015481526020016001820160009054906101000a900473ffffffffffffffffffffffffffffffffffffffff1673ffffffffffffffffffffffffffffffffffffffff1673ffffffffffffffffffffffffffffffffffffffff168152602001600282015481526020016003820160009054906101000a900473ffffffffffffffffffffffffffffffffffffffff1673ffffffffffffffffffffffffffffffffffffffff1673ffffffffffffffffffffffffffffffffffffffff1681526020016004820160009054906101000a900473ffffffffffffffffffffffffffffffffffffffff1673ffffffffffffffffffffffffffffffffffffffff1673ffffffffffffffffffffffffffffffffffffffff168152602001600582015481526020016006820160009054906101000a900460ff161515151581525050848681518110610a37577f4e487b7100000000000000000000000000000000000000000000000000000000600052603260045260246000fd5b6020026020010181905250600185610a4f9190612728565b945050505b8080610a5f9061286e565b915050610811565b508094505050505090565b60026001541415610ab8576040517f08c379a0000000000000000000000000000000000000000000000000000000008152600401610aaf90612688565b60405180910390fd5b60026001819055506000600960008481526020019081526020016000209050600081600001541415610b1f576040517f08c379a0000000000000000000000000000000000000000000000000000000008152600401610b1690612608565b60405180910390fd5b8060040160009054906101000a900473ffffffffffffffffffffffffffffffffffffffff1673ffffffffffffffffffffffffffffffffffffffff163373ffffffffffffffffffffffffffffffffffffffff1614610bb1576040517f08c379a0000000000000000000000000000000000000000000000000000000008152600401610ba8906125e8565b60405180910390fd5b600454341015610bf6576040517f08c379a0000000000000000000000000000000000000000000000000000000008152600401610bed90612668565b60405180910390fd5b64e8d4a51000821015610c3e576040517f08c379a0000000000000000000000000000000000000000000000000000000008152600401610c35906125c8565b60405180910390fd5b338160030160006101000a81548173ffffffffffffffffffffffffffffffffffffffff021916908373ffffffffffffffffffffffffffffffffffffffff160217905550308160040160006101000a81548173ffffffffffffffffffffffffffffffffffffffff021916908373ffffffffffffffffffffffffffffffffffffffff16021790555060008160060160006101000a81548160ff0219169083151502179055508181600501819055508060010160009054906101000a900473ffffffffffffffffffffffffffffffffffffffff1673ffffffffffffffffffffffffffffffffffffffff166342842e0e333084600201546040518463ffffffff1660e01b8152600401610d4f93929190612514565b600060405180830381600087803b158015610d6957600080fd5b505af1158015610d7d573d6000803e3d6000fd5b50505050610d8b6003611d94565b80600201548160010160009054906101000a900473ffffffffffffffffffffffffffffffffffffffff1673ffffffffffffffffffffffffffffffffffffffff1682600001547f045dfa01dcba2b36aba1d3dc4a874f4b0c5d2fbeb8d2c4b34a7d88c8d8f929d13330876000604051610e0694939291906124cf565b60405180910390a450600180819055505050565b600060066000610e28611df0565b73ffffffffffffffffffffffffffffffffffffffff1673ffffffffffffffffffffffffffffffffffffffff16815260200190815260200160002054905090565b60026001541415610eae576040517f08c379a0000000000000000000000000000000000000000000000000000000008152600401610ea590612688565b60405180910390fd5b6002600181905550600454341015610efb576040517f08c379a0000000000000000000000000000000000000000000000000000000008152600401610ef290612668565b60405180910390fd5b64e8d4a51000811015610f43576040517f08c379a0000000000000000000000000000000000000000000000000000000008152600401610f3a906125c8565b60405180910390fd5b610f4d6002611df8565b6000610f596002611d86565b90506040518060e001604052808281526020018573ffffffffffffffffffffffffffffffffffffffff1681526020018481526020013373ffffffffffffffffffffffffffffffffffffffff168152602001600073ffffffffffffffffffffffffffffffffffffffff16815260200183815260200160001515815250600960008381526020019081526020016000206000820151816000015560208201518160010160006101000a81548173ffffffffffffffffffffffffffffffffffffffff021916908373ffffffffffffffffffffffffffffffffffffffff1602179055506040820151816002015560608201518160030160006101000a81548173ffffffffffffffffffffffffffffffffffffffff021916908373ffffffffffffffffffffffffffffffffffffffff16021790555060808201518160040160006101000a81548173ffffffffffffffffffffffffffffffffffffffff021916908373ffffffffffffffffffffffffffffffffffffffff16021790555060a0820151816005015560c08201518160060160006101000a81548160ff0219169083151502179055509050508373ffffffffffffffffffffffffffffffffffffffff166342842e0e3330866040518463ffffffff1660e01b815260040161113a93929190612514565b600060405180830381600087803b15801561115457600080fd5b505af1158015611168573d6000803e3d6000fd5b5050505080600760008673ffffffffffffffffffffffffffffffffffffffff1673ffffffffffffffffffffffffffffffffffffffff168152602001908152602001600020600085815260200190815260200160002081905550828473ffffffffffffffffffffffffffffffffffffffff16827f045dfa01dcba2b36aba1d3dc4a874f4b0c5d2fbeb8d2c4b34a7d88c8d8f929d133600087600060405161121194939291906124cf565b60405180910390a45060018081905550505050565b6000600454905090565b611238611df0565b73ffffffffffffffffffffffffffffffffffffffff166112566112b8565b73ffffffffffffffffffffffffffffffffffffffff16146112ac576040517f08c379a00000000000000000000000000000000000000000000000000000000081526004016112a390612628565b60405180910390fd5b6112b66000611e0e565b565b60008060009054906101000a900473ffffffffffffffffffffffffffffffffffffffff16905090565b6000600760008573ffffffffffffffffffffffffffffffffffffffff1673ffffffffffffffffffffffffffffffffffffffff16815260200190815260200160002060008481526020019081526020016000205490506000811461134d576113488183610a72565b611359565b611358848484610e68565b5b50505050565b600260015414156113a5576040517f08c379a000000000000000000000000000000000000000000000000000000000815260040161139c90612688565b60405180910390fd5b600260018190555060006009600083815260200190815260200160002060050154905060006009600084815260200190815260200160002060020154905081341015611426576040517f08c379a000000000000000000000000000000000000000000000000000000000815260040161141d90612648565b60405180910390fd5b60006009600085815260200190815260200160002060030160009054906101000a900473ffffffffffffffffffffffffffffffffffffffff16905082600560008373ffffffffffffffffffffffffffffffffffffffff1673ffffffffffffffffffffffffffffffffffffffff16815260200190815260200160002060008282546114b09190612728565b925050819055506001600660008373ffffffffffffffffffffffffffffffffffffffff1673ffffffffffffffffffffffffffffffffffffffff16815260200190815260200160002060008282546115079190612728565b925050819055506009600085815260200190815260200160002060030160009054906101000a900473ffffffffffffffffffffffffffffffffffffffff1673ffffffffffffffffffffffffffffffffffffffff166108fc349081150290604051600060405180830381858888f1935050505015801561158a573d6000803e3d6000fd5b508473ffffffffffffffffffffffffffffffffffffffff166342842e0e3033856040518463ffffffff1660e01b81526004016115c893929190612514565b600060405180830381600087803b1580156115e257600080fd5b505af11580156115f6573d6000803e3d6000fd5b50505050336009600086815260200190815260200160002060040160006101000a81548173ffffffffffffffffffffffffffffffffffffffff021916908373ffffffffffffffffffffffffffffffffffffffff16021790555060016009600086815260200190815260200160002060060160006101000a81548160ff0219169083151502179055506116886003611df8565b6116906112b8565b73ffffffffffffffffffffffffffffffffffffffff166108fc6004549081150290604051600060405180830381858888f193505050501580156116d7573d6000803e3d6000fd5b50818573ffffffffffffffffffffffffffffffffffffffff16857f8e34d1005b6cb3adbaf80717c75cb4fb28fb623b7d72df4f50968c8229e4492033600088600160405161172894939291906124cf565b60405180910390a4505050600180819055505050565b611746611ed2565b600960008381526020019081526020016000206040518060e0016040529081600082015481526020016001820160009054906101000a900473ffffffffffffffffffffffffffffffffffffffff1673ffffffffffffffffffffffffffffffffffffffff1673ffffffffffffffffffffffffffffffffffffffff168152602001600282015481526020016003820160009054906101000a900473ffffffffffffffffffffffffffffffffffffffff1673ffffffffffffffffffffffffffffffffffffffff1673ffffffffffffffffffffffffffffffffffffffff1681526020016004820160009054906101000a900473ffffffffffffffffffffffffffffffffffffffff1673ffffffffffffffffffffffffffffffffffffffff1673ffffffffffffffffffffffffffffffffffffffff168152602001600582015481526020016006820160009054906101000a900460ff1615151515815250509050919050565b6000600560006118b4611df0565b73ffffffffffffffffffffffffffffffffffffffff1673ffffffffffffffffffffffffffffffffffffffff16815260200190815260200160002054905090565b606060006119026002611d86565b905060008060005b838110156119ab573373ffffffffffffffffffffffffffffffffffffffff166009600060018461193a9190612728565b815260200190815260200160002060030160009054906101000a900473ffffffffffffffffffffffffffffffffffffffff1673ffffffffffffffffffffffffffffffffffffffff161415611998576001836119959190612728565b92505b80806119a39061286e565b91505061190a565b5060008267ffffffffffffffff8111156119ee577f4e487b7100000000000000000000000000000000000000000000000000000000600052604160045260246000fd5b604051908082528060200260200182016040528015611a2757816020015b611a14611ed2565b815260200190600190039081611a0c5790505b50905060005b84811015611c83573373ffffffffffffffffffffffffffffffffffffffff1660096000600184611a5d9190612728565b815260200190815260200160002060030160009054906101000a900473ffffffffffffffffffffffffffffffffffffffff1673ffffffffffffffffffffffffffffffffffffffff161415611c70576000600182611aba9190612728565b90506000600960008381526020019081526020016000209050806040518060e0016040529081600082015481526020016001820160009054906101000a900473ffffffffffffffffffffffffffffffffffffffff1673ffffffffffffffffffffffffffffffffffffffff1673ffffffffffffffffffffffffffffffffffffffff168152602001600282015481526020016003820160009054906101000a900473ffffffffffffffffffffffffffffffffffffffff1673ffffffffffffffffffffffffffffffffffffffff1673ffffffffffffffffffffffffffffffffffffffff1681526020016004820160009054906101000a900473ffffffffffffffffffffffffffffffffffffffff1673ffffffffffffffffffffffffffffffffffffffff1673ffffffffffffffffffffffffffffffffffffffff168152602001600582015481526020016006820160009054906101000a900460ff161515151581525050848681518110611c53577f4e487b7100000000000000000000000000000000000000000000000000000000600052603260045260246000fd5b6020026020010181905250600185611c6b9190612728565b945050505b8080611c7b9061286e565b915050611a2d565b508094505050505090565b611c96611df0565b73ffffffffffffffffffffffffffffffffffffffff16611cb46112b8565b73ffffffffffffffffffffffffffffffffffffffff1614611d0a576040517f08c379a0000000000000000000000000000000000000000000000000000000008152600401611d0190612628565b60405180910390fd5b600073ffffffffffffffffffffffffffffffffffffffff168173ffffffffffffffffffffffffffffffffffffffff161415611d7a576040517f08c379a0000000000000000000000000000000000000000000000000000000008152600401611d71906125a8565b60405180910390fd5b611d8381611e0e565b50565b600081600001549050919050565b60008160000154905060008111611de0576040517f08c379a0000000000000000000000000000000000000000000000000000000008152600401611dd790612588565b60405180910390fd5b6001810382600001819055505050565b600033905090565b6001816000016000828254019250508190555050565b60008060009054906101000a900473ffffffffffffffffffffffffffffffffffffffff169050816000806101000a81548173ffffffffffffffffffffffffffffffffffffffff021916908373ffffffffffffffffffffffffffffffffffffffff1602179055508173ffffffffffffffffffffffffffffffffffffffff168173ffffffffffffffffffffffffffffffffffffffff167f8be0079c531659141344cd1fd0a4f28419497f9722a3daafe3b4186f6b6457e060405160405180910390a35050565b6040518060e0016040528060008152602001600073ffffffffffffffffffffffffffffffffffffffff16815260200160008152602001600073ffffffffffffffffffffffffffffffffffffffff168152602001600073ffffffffffffffffffffffffffffffffffffffff168152602001600081526020016000151581525090565b600081359050611f6281612b15565b92915050565b60008083601f840112611f7a57600080fd5b8235905067ffffffffffffffff811115611f9357600080fd5b602083019150836001820283011115611fab57600080fd5b9250929050565b600081359050611fc181612b2c565b92915050565b600060208284031215611fd957600080fd5b6000611fe784828501611f53565b91505092915050565b60008060008060006080868803121561200857600080fd5b600061201688828901611f53565b955050602061202788828901611f53565b945050604061203888828901611fb2565b935050606086013567ffffffffffffffff81111561205557600080fd5b61206188828901611f68565b92509250509295509295909350565b6000806040838503121561208357600080fd5b600061209185828601611f53565b92505060206120a285828601611fb2565b9150509250929050565b6000806000606084860312156120c157600080fd5b60006120cf86828701611f53565b93505060206120e086828701611fb2565b92505060406120f186828701611fb2565b9150509250925092565b60006020828403121561210d57600080fd5b600061211b84828501611fb2565b91505092915050565b6000806040838503121561213757600080fd5b600061214585828601611fb2565b925050602061215685828601611fb2565b9150509250929050565b600061216c838361237a565b60e08301905092915050565b61218181612838565b82525050565b612190816127c4565b82525050565b61219f816127b2565b82525050565b6121ae816127b2565b82525050565b60006121bf826126ee565b6121c98185612706565b93506121d4836126de565b8060005b838110156122055781516121ec8882612160565b97506121f7836126f9565b9250506001810190506121d8565b5085935050505092915050565b61221b816127d6565b82525050565b61222a816127d6565b82525050565b612239816127e2565b82525050565b600061224c601b83612717565b9150612257826128e6565b602082019050919050565b600061226f602683612717565b915061227a8261290f565b604082019050919050565b6000612292602583612717565b915061229d8261295e565b604082019050919050565b60006122b5602483612717565b91506122c0826129ad565b604082019050919050565b60006122d8601f83612717565b91506122e3826129fc565b602082019050919050565b60006122fb602083612717565b915061230682612a25565b602082019050919050565b600061231e602583612717565b915061232982612a4e565b604082019050919050565b6000612341602783612717565b915061234c82612a9d565b604082019050919050565b6000612364601f83612717565b915061236f82612aec565b602082019050919050565b60e0820160008201516123906000850182612496565b5060208201516123a36020850182612196565b5060408201516123b66040850182612496565b5060608201516123c96060850182612187565b5060808201516123dc6080850182612187565b5060a08201516123ef60a0850182612496565b5060c082015161240260c0850182612212565b50505050565b60e08201600082015161241e6000850182612496565b5060208201516124316020850182612196565b5060408201516124446040850182612496565b5060608201516124576060850182612187565b50608082015161246a6080850182612187565b5060a082015161247d60a0850182612496565b5060c082015161249060c0850182612212565b50505050565b61249f8161282e565b82525050565b6124ae8161282e565b82525050565b60006020820190506124c960008301846121a5565b92915050565b60006080820190506124e46000830187612178565b6124f16020830186612178565b6124fe60408301856124a5565b61250b6060830184612221565b95945050505050565b600060608201905061252960008301866121a5565b61253660208301856121a5565b61254360408301846124a5565b949350505050565b6000602082019050818103600083015261256581846121b4565b905092915050565b60006020820190506125826000830184612230565b92915050565b600060208201905081810360008301526125a18161223f565b9050919050565b600060208201905081810360008301526125c181612262565b9050919050565b600060208201905081810360008301526125e181612285565b9050919050565b60006020820190508181036000830152612601816122a8565b9050919050565b60006020820190508181036000830152612621816122cb565b9050919050565b60006020820190508181036000830152612641816122ee565b9050919050565b6000602082019050818103600083015261266181612311565b9050919050565b6000602082019050818103600083015261268181612334565b9050919050565b600060208201905081810360008301526126a181612357565b9050919050565b600060e0820190506126bd6000830184612408565b92915050565b60006020820190506126d860008301846124a5565b92915050565b6000819050602082019050919050565b600081519050919050565b6000602082019050919050565b600082825260208201905092915050565b600082825260208201905092915050565b60006127338261282e565b915061273e8361282e565b9250827fffffffffffffffffffffffffffffffffffffffffffffffffffffffffffffffff03821115612773576127726128b7565b5b828201905092915050565b60006127898261282e565b91506127948361282e565b9250828210156127a7576127a66128b7565b5b828203905092915050565b60006127bd8261280e565b9050919050565b60006127cf8261280e565b9050919050565b60008115159050919050565b60007fffffffff0000000000000000000000000000000000000000000000000000000082169050919050565b600073ffffffffffffffffffffffffffffffffffffffff82169050919050565b6000819050919050565b60006128438261284a565b9050919050565b60006128558261285c565b9050919050565b60006128678261280e565b9050919050565b60006128798261282e565b91507fffffffffffffffffffffffffffffffffffffffffffffffffffffffffffffffff8214156128ac576128ab6128b7565b5b600182019050919050565b7f4e487b7100000000000000000000000000000000000000000000000000000000600052601160045260246000fd5b7f436f756e7465723a2064656372656d656e74206f766572666c6f770000000000600082015250565b7f4f776e61626c653a206e6577206f776e657220697320746865207a65726f206160008201527f6464726573730000000000000000000000000000000000000000000000000000602082015250565b7f7072696365206d757374206265206174206c6561737420302e3030303030312060008201527f6d61746963000000000000000000000000000000000000000000000000000000602082015250565b7f4d61726b6574706c616365203a20726571756573746572206973206e6f74204f60008201527f776e657200000000000000000000000000000000000000000000000000000000602082015250565b7f4d61726b6574506c6163653a204974656d4944206e6f742070726573656e7400600082015250565b7f4f776e61626c653a2063616c6c6572206973206e6f7420746865206f776e6572600082015250565b7f204d61726b6574706c6163653a2041736b6564207072696365206e6f74206d6160008201527f7463686564000000000000000000000000000000000000000000000000000000602082015250565b7f4d61726b6574706c6163653a20506c6561736520636865636b204c697374696e60008201527f6720507269636500000000000000000000000000000000000000000000000000602082015250565b7f5265656e7472616e637947756172643a207265656e7472616e742063616c6c00600082015250565b612b1e816127b2565b8114612b2957600080fd5b50565b612b358161282e565b8114612b4057600080fd5b5056fea26469706673582212209e32d01a3a41e8da0cf1fb43ca663314a686399d664a43df71f05410beca727564736f6c63430008040033",
  "linkReferences": {},
  "deployedLinkReferences": {}
}